:1000000012C02CC02BC02AC029C028C027C026C0BF
:1000100025C024C023C022C021C020C01FC01EC0D4
:100020001DC01CC01BC011241FBECFE5D4E0DEBF25
:10003000CDBF10E0A0E6B0E0EAECF5E002C005902C
:100040000D92A036B107D9F710E0A0E6B0E001C0EC
:100050001D92A236B107E1F702D0B5C2D1CF60E060
:1000600072EC81E090E047D283E007D080E030D0AE
:1000700080E04DD080E063D0FFCF823071F08330DC
:1000800028F48823C9F0813071F405C0833039F039
:10009000843049F406C091E010C092E00EC093E0B5
:1000A0000CC097E00AC086E190E0909361008093D5
:1000B00060002FEF3FEF0AC090E080B5897F80BDE0
:1000C00080B5990F982B90BD20E030E0C9010895CC
:1000D000813029F0813080F0823029F402C092E032
:1000E0000CC093E00AC086E190E090936100809399
:1000F00060002FEF3FEF09C090E080B58F7C80BD9E
:100100009295907F90BD20E030E0C901089588234A
:1001100019F0813051F403C080B5877F02C080B5EB
:10012000886080BD20E030E008C086E190E09093D8
:100130006100809360002FEF3FEFC9010895813087
:1001400049F0813018F0823079F40AC080B58F7B95
:1001500080BD03C080E480BD8C9A20E030E00CC0FC
:1001600080E480BD8C98F9CF86E190E090936100A7
:10017000809360002FEF3FEFC9010895882311F0AD
:10018000549A01C0549880E090E00895882311F0BB
:10019000539A01C0539880E090E00895539B06C0A5
:1001A0005D9BFECF8CB920E030E008C081E890E094
:1001B00090936100809360002FEF3FEFC901089595
:1001C000FC01549907C082E890E09093610080930D
:1001D000600003C09BB197FD03C02FEF3FEF1FC02E
:1001E000892F8C7119F420E030E017C0983039F075
:1001F000903141F0943049F483E890E008C084E8FD
:1002000090E005C085E890E002C086E890E0909319
:100210006100809360002FEF3FEF8CB18083C901B4
:1002200008958BB182958695877080958170089529
:10023000882311F0579A01C0579880E090E0089504
:10024000882311F0559A01C0559880E090E00895F8
:10025000882311F0569A01C0569880E090E00895E6
:100260008CB980E090E00895FC019BB18CB1808353
:10027000892F8C7119F420E030E017C0983039F0E4
:10028000903141F0943049F483E890E008C084E86C
:1002900090E005C085E890E002C086E890E0909389
:1002A0006100809360002FEF3FEFC90108953F92F6
:1002B0004F925F926F927F928F929F92AF92BF9276
:1002C000CF92DF92EF92FF920F931F93DF93CF9322
:1002D000CDB7DEB72A970FB6F894DEBF0FBECDBFFD
:1002E0006B017C01342E1A870987012B09F4E1C0C8
:1002F000222321F0233008F0DCC09FC0DC01CB01B9
:1003000003E0880F991FAA1FBB1F0A95D1F78D83A1
:100310009E83AF83B887BC01CD01605070408F4190
:100320009F4FA701960114E0220F331F441F551F52
:100330001A95D1F726D1890101501040B4E0220F5F
:10034000331FBA95E1F74901AA24BB24432C552455
:1003500066247724C301B2016C597F4F8F4F9F4FA2
:10036000A7019601EFD069837A838B839C83C501B3
:10037000B40129813A814B815C81E4D060507040A6
:10038000844E9745A0F064E670E080E090E0641948
:10039000750986099709A7019601D4D0A501940192
:1003A000D1D061507040844E974508F485C0C70194
:1003B000B601A2E0660F771F881F991FAA95D1F793
:1003C000605070408F419F4F2D813E814F815885F5
:1003D000D8D0890101501040F3E0220F331FFA9565
:1003E000E1F74901AA24BB24C501B40129813A815E
:1003F0004B815C81A7D060507040844E9745A0F03F
:1004000064E670E080E090E0641975098609970958
:10041000A701960197D0A501940194D06150704036
:10042000844E974508F448C080E890E090936100BE
:10043000809360002FEF3FEF45C0605070408F41C8
:100440009F4FA7019601220F331F441F551F99D0BC
:10045000890101501040220F331F2901662477249F
:10046000832C9924AA24BB24C501B4016C597F4F65
:100470008F4F9F4FA701960165D0A301920162D0D3
:1004800060507040844E974578F264E670E080E0FA
:1004900090E0681979098A099B09A701960152D051
:1004A000A30192014FD061507040844E974520F0D7
:1004B000BBCF86E190E0BACFE985FA85118300834E
:1004C00020E030E0C9012A960FB6F894DEBF0FBED7
:1004D000CDBFCF91DF911F910F91FF90EF90DF90F3
:1004E000CF90BF90AF909F908F907F906F905F90D4
:1004F0004F903F9008950F931F93DF93CF9300D0B9
:10050000CDB7DEB742E020E08E010F5F1F4FCFDE98
:100510009C0197FD0FC099818A8180BD99B92130D6
:10052000310519F480B5846002C080B58B7F80BD31
:1005300020E030E0C9010F900F90CF91DF911F9123
:100540000F910895629FD001739FF001829FE00D8B
:10055000F11D649FE00DF11D929FF00D839FF00D42
:10056000749FF00D659FF00D9927729FB00DE11DEE
:10057000F91F639FB00DE11DF91FBD01CF011124CB
:100580000895A1E21A2EAA1BBB1BFD010DC0AA1FD4
:10059000BB1FEE1FFF1FA217B307E407F50720F0EC
:1005A000A21BB30BE40BF50B661F771F881F991F67
:1005B0001A9469F760957095809590959B01AC01B0
:0A05C000BD01CF010895F894FFCFAC
:00000001FF
